{
  "_format": "hh-sol-artifact-1",
  "contractName": "EmelToken",
  "sourceName": "contracts/EmelToken.sol",
  "abi": [
    {
      "inputs": [
        {
          "internalType": "uint256",
          "name": "initialSupply",
          "type": "uint256"
        }
      ],
      "stateMutability": "nonpayable",
      "type": "constructor"
    },
    {
      "inputs": [
        {
          "internalType": "address",
          "name": "spender",
          "type": "address"
        },
        {
          "internalType": "uint256",
          "name": "allowance",
          "type": "uint256"
        },
        {
          "internalType": "uint256",
          "name": "needed",
          "type": "uint256"
        }
      ],
      "name": "ERC20InsufficientAllowance",
      "type": "error"
    },
    {
      "inputs": [
        {
          "internalType": "address",
          "name": "sender",
          "type": "address"
        },
        {
          "internalType": "uint256",
          "name": "balance",
          "type": "uint256"
        },
        {
          "internalType": "uint256",
          "name": "needed",
          "type": "uint256"
        }
      ],
      "name": "ERC20InsufficientBalance",
      "type": "error"
    },
    {
      "inputs": [
        {
          "internalType": "address",
          "name": "approver",
          "type": "address"
        }
      ],
      "name": "ERC20InvalidApprover",
      "type": "error"
    },
    {
      "inputs": [
        {
          "internalType": "address",
          "name": "receiver",
          "type": "address"
        }
      ],
      "name": "ERC20InvalidReceiver",
      "type": "error"
    },
    {
      "inputs": [
        {
          "internalType": "address",
          "name": "sender",
          "type": "address"
        }
      ],
      "name": "ERC20InvalidSender",
      "type": "error"
    },
    {
      "inputs": [
        {
          "internalType": "address",
          "name": "spender",
          "type": "address"
        }
      ],
      "name": "ERC20InvalidSpender",
      "type": "error"
    },
    {
      "anonymous": false,
      "inputs": [
        {
          "indexed": true,
          "internalType": "address",
          "name": "owner",
          "type": "address"
        },
        {
          "indexed": true,
          "internalType": "address",
          "name": "spender",
          "type": "address"
        },
        {
          "indexed": false,
          "internalType": "uint256",
          "name": "value",
          "type": "uint256"
        }
      ],
      "name": "Approval",
      "type": "event"
    },
    {
      "anonymous": false,
      "inputs": [
        {
          "indexed": true,
          "internalType": "address",
          "name": "from",
          "type": "address"
        },
        {
          "indexed": true,
          "internalType": "address",
          "name": "to",
          "type": "address"
        },
        {
          "indexed": false,
          "internalType": "uint256",
          "name": "value",
          "type": "uint256"
        }
      ],
      "name": "Transfer",
      "type": "event"
    },
    {
      "inputs": [
        {
          "internalType": "address",
          "name": "owner",
          "type": "address"
        },
        {
          "internalType": "address",
          "name": "spender",
          "type": "address"
        }
      ],
      "name": "allowance",
      "outputs": [
        {
          "internalType": "uint256",
          "name": "",
          "type": "uint256"
        }
      ],
      "stateMutability": "view",
      "type": "function"
    },
    {
      "inputs": [
        {
          "internalType": "address",
          "name": "spender",
          "type": "address"
        },
        {
          "internalType": "uint256",
          "name": "amount",
          "type": "uint256"
        }
      ],
      "name": "approve",
      "outputs": [
        {
          "internalType": "bool",
          "name": "",
          "type": "bool"
        }
      ],
      "stateMutability": "nonpayable",
      "type": "function"
    },
    {
      "inputs": [
        {
          "internalType": "address",
          "name": "account",
          "type": "address"
        }
      ],
      "name": "balanceOf",
      "outputs": [
        {
          "internalType": "uint256",
          "name": "",
          "type": "uint256"
        }
      ],
      "stateMutability": "view",
      "type": "function"
    },
    {
      "inputs": [
        {
          "internalType": "address",
          "name": "from",
          "type": "address"
        },
        {
          "internalType": "uint256",
          "name": "amount",
          "type": "uint256"
        }
      ],
      "name": "burn",
      "outputs": [],
      "stateMutability": "nonpayable",
      "type": "function"
    },
    {
      "inputs": [],
      "name": "decimals",
      "outputs": [
        {
          "internalType": "uint8",
          "name": "",
          "type": "uint8"
        }
      ],
      "stateMutability": "view",
      "type": "function"
    },
    {
      "inputs": [
        {
          "internalType": "address",
          "name": "account",
          "type": "address"
        }
      ],
      "name": "getBalanceOf",
      "outputs": [
        {
          "internalType": "uint256",
          "name": "",
          "type": "uint256"
        }
      ],
      "stateMutability": "view",
      "type": "function"
    },
    {
      "inputs": [
        {
          "internalType": "address",
          "name": "to",
          "type": "address"
        },
        {
          "internalType": "uint256",
          "name": "amount",
          "type": "uint256"
        }
      ],
      "name": "mint",
      "outputs": [],
      "stateMutability": "nonpayable",
      "type": "function"
    },
    {
      "inputs": [],
      "name": "name",
      "outputs": [
        {
          "internalType": "string",
          "name": "",
          "type": "string"
        }
      ],
      "stateMutability": "view",
      "type": "function"
    },
    {
      "inputs": [],
      "name": "symbol",
      "outputs": [
        {
          "internalType": "string",
          "name": "",
          "type": "string"
        }
      ],
      "stateMutability": "view",
      "type": "function"
    },
    {
      "inputs": [],
      "name": "totalSupply",
      "outputs": [
        {
          "internalType": "uint256",
          "name": "",
          "type": "uint256"
        }
      ],
      "stateMutability": "view",
      "type": "function"
    },
    {
      "inputs": [
        {
          "internalType": "address",
          "name": "to",
          "type": "address"
        },
        {
          "internalType": "uint256",
          "name": "amount",
          "type": "uint256"
        }
      ],
      "name": "transfer",
      "outputs": [
        {
          "internalType": "bool",
          "name": "",
          "type": "bool"
        }
      ],
      "stateMutability": "nonpayable",
      "type": "function"
    },
    {
      "inputs": [
        {
          "internalType": "address",
          "name": "from",
          "type": "address"
        },
        {
          "internalType": "address",
          "name": "to",
          "type": "address"
        },
        {
          "internalType": "uint256",
          "name": "amount",
          "type": "uint256"
        }
      ],
      "name": "transferFrom",
      "outputs": [
        {
          "internalType": "bool",
          "name": "",
          "type": "bool"
        }
      ],
      "stateMutability": "nonpayable",
      "type": "function"
    }
  ],
  "bytecode": "0x60806040523480156200001157600080fd5b5060405162000d9838038062000d988339810160408190526200003491620002b7565b60405180604001604052806004815260200163115b595b60e21b8152506040518060400160405280600381526020016211535360ea1b81525081600390816200007e919062000378565b5060046200008d828262000378565b505050620000c433620000a56200013d60201b60201c565b620000b290600a62000559565b620000be908462000571565b62000142565b620000d26012600a62000559565b620000de908262000571565b600555604080518082019091526004815263115b595b60e21b60208201526006906200010b908262000378565b5060408051808201909152600381526211535360ea1b602082015260079062000135908262000378565b5050620005a1565b601290565b6001600160a01b038216620001725760405163ec442f0560e01b8152600060048201526024015b60405180910390fd5b620001806000838362000184565b5050565b6001600160a01b038316620001b3578060026000828254620001a791906200058b565b90915550620002279050565b6001600160a01b03831660009081526020819052604090205481811015620002085760405163391434e360e21b81526001600160a01b0385166004820152602481018290526044810183905260640162000169565b6001600160a01b03841660009081526020819052604090209082900390555b6001600160a01b038216620002455760028054829003905562000264565b6001600160a01b03821660009081526020819052604090208054820190555b816001600160a01b0316836001600160a01b03167fddf252ad1be2c89b69c2b068fc378daa952ba7f163c4a11628f55a4df523b3ef83604051620002aa91815260200190565b60405180910390a3505050565b600060208284031215620002ca57600080fd5b5051919050565b634e487b7160e01b600052604160045260246000fd5b600181811c90821680620002fc57607f821691505b6020821081036200031d57634e487b7160e01b600052602260045260246000fd5b50919050565b601f82111562000373576000816000526020600020601f850160051c810160208610156200034e5750805b601f850160051c820191505b818110156200036f578281556001016200035a565b5050505b505050565b81516001600160401b03811115620003945762000394620002d1565b620003ac81620003a58454620002e7565b8462000323565b602080601f831160018114620003e45760008415620003cb5750858301515b600019600386901b1c1916600185901b1785556200036f565b600085815260208120601f198616915b828110156200041557888601518255948401946001909101908401620003f4565b5085821015620004345787850151600019600388901b60f8161c191681555b5050505050600190811b01905550565b634e487b7160e01b600052601160045260246000fd5b600181815b808511156200049b5781600019048211156200047f576200047f62000444565b808516156200048d57918102915b93841c93908002906200045f565b509250929050565b600082620004b45750600162000553565b81620004c35750600062000553565b8160018114620004dc5760028114620004e75762000507565b600191505062000553565b60ff841115620004fb57620004fb62000444565b50506001821b62000553565b5060208310610133831016604e8410600b84101617156200052c575081810a62000553565b6200053883836200045a565b80600019048211156200054f576200054f62000444565b0290505b92915050565b60006200056a60ff841683620004a3565b9392505050565b808202811582820484141762000553576200055362000444565b8082018082111562000553576200055362000444565b6107e780620005b16000396000f3fe608060405234801561001057600080fd5b50600436106100b45760003560e01c806370a082311161007157806370a082311461014357806395d89b411461016c5780639b96eece146101745780639dc29fac14610187578063a9059cbb1461019a578063dd62ed3e146101ad57600080fd5b806306fdde03146100b9578063095ea7b3146100d757806318160ddd146100fa57806323b872dd1461010c578063313ce5671461011f57806340c10f191461012e575b600080fd5b6100c16101e6565b6040516100ce9190610615565b60405180910390f35b6100ea6100e5366004610680565b610278565b60405190151581526020016100ce565b6002545b6040519081526020016100ce565b6100ea61011a3660046106aa565b61028f565b604051601281526020016100ce565b61014161013c366004610680565b6102e1565b005b6100fe6101513660046106e6565b6001600160a01b031660009081526020819052604090205490565b6100c16102ef565b6100fe6101823660046106e6565b6102fe565b610141610195366004610680565b61031c565b6100ea6101a8366004610680565b610326565b6100fe6101bb366004610708565b6001600160a01b03918216600090815260016020908152604080832093909416825291909152205490565b6060600380546101f59061073b565b80601f01602080910402602001604051908101604052809291908181526020018280546102219061073b565b801561026e5780601f106102435761010080835404028352916020019161026e565b820191906000526020600020905b81548152906001019060200180831161025157829003601f168201915b5050505050905090565b6000610285338484610333565b5060015b92915050565b600061029c848484610345565b6001600160a01b0384166000908152600160209081526040808320338085529252909120546102d79186916102d290869061078b565b610333565b5060019392505050565b6102eb82826103a9565b5050565b6060600480546101f59061073b565b6001600160a01b038116600090815260208190526040812054610289565b6102eb82826103df565b6000610285338484610345565b6103408383836001610415565b505050565b6001600160a01b03831661037457604051634b637e8f60e11b8152600060048201526024015b60405180910390fd5b6001600160a01b03821661039e5760405163ec442f0560e01b81526000600482015260240161036b565b6103408383836104eb565b6001600160a01b0382166103d35760405163ec442f0560e01b81526000600482015260240161036b565b6102eb600083836104eb565b6001600160a01b03821661040957604051634b637e8f60e11b81526000600482015260240161036b565b6102eb826000836104eb565b6001600160a01b03841661043f5760405163e602df0560e01b81526000600482015260240161036b565b6001600160a01b03831661046957604051634a1406b160e11b81526000600482015260240161036b565b6001600160a01b03808516600090815260016020908152604080832093871683529290522082905580156104e557826001600160a01b0316846001600160a01b03167f8c5be1e5ebec7d5bd14f71427d1e84f3dd0314c0f7b2291e5b200ac8c7c3b925846040516104dc91815260200190565b60405180910390a35b50505050565b6001600160a01b03831661051657806002600082825461050b919061079e565b909155506105889050565b6001600160a01b038316600090815260208190526040902054818110156105695760405163391434e360e21b81526001600160a01b0385166004820152602481018290526044810183905260640161036b565b6001600160a01b03841660009081526020819052604090209082900390555b6001600160a01b0382166105a4576002805482900390556105c3565b6001600160a01b03821660009081526020819052604090208054820190555b816001600160a01b0316836001600160a01b03167fddf252ad1be2c89b69c2b068fc378daa952ba7f163c4a11628f55a4df523b3ef8360405161060891815260200190565b60405180910390a3505050565b60006020808352835180602085015260005b8181101561064357858101830151858201604001528201610627565b506000604082860101526040601f19601f8301168501019250505092915050565b80356001600160a01b038116811461067b57600080fd5b919050565b6000806040838503121561069357600080fd5b61069c83610664565b946020939093013593505050565b6000806000606084860312156106bf57600080fd5b6106c884610664565b92506106d660208501610664565b9150604084013590509250925092565b6000602082840312156106f857600080fd5b61070182610664565b9392505050565b6000806040838503121561071b57600080fd5b61072483610664565b915061073260208401610664565b90509250929050565b600181811c9082168061074f57607f821691505b60208210810361076f57634e487b7160e01b600052602260045260246000fd5b50919050565b634e487b7160e01b600052601160045260246000fd5b8181038181111561028957610289610775565b808201808211156102895761028961077556fea264697066735822122030a8c61cdf7b0ad5a4b2f37883fbc037aaa61a7d591af8573a515a12cc6c664d64736f6c63430008180033",
  "linkReferences": {},
  "deployedLinkReferences": {}
}